{
  "contractName": "Splitter",
  "abi": [
    {
      "constant": true,
      "inputs": [
        {
          "name": "",
          "type": "address"
        }
      ],
      "name": "userBalance",
      "outputs": [
        {
          "name": "",
          "type": "uint256"
        }
      ],
      "payable": false,
      "stateMutability": "view",
      "type": "function"
    },
    {
      "constant": true,
      "inputs": [],
      "name": "owner",
      "outputs": [
        {
          "name": "",
          "type": "address"
        }
      ],
      "payable": false,
      "stateMutability": "view",
      "type": "function"
    },
    {
      "inputs": [],
      "payable": false,
      "stateMutability": "nonpayable",
      "type": "constructor"
    },
    {
      "anonymous": false,
      "inputs": [
        {
          "indexed": true,
          "name": "owner",
          "type": "address"
        }
      ],
      "name": "LogCreateContract",
      "type": "event"
    },
    {
      "anonymous": false,
      "inputs": [
        {
          "indexed": true,
          "name": "receiver1",
          "type": "address"
        },
        {
          "indexed": true,
          "name": "reciever2",
          "type": "address"
        },
        {
          "indexed": true,
          "name": "sender",
          "type": "address"
        },
        {
          "indexed": false,
          "name": "receiverShare",
          "type": "uint256"
        },
        {
          "indexed": false,
          "name": "senderShare",
          "type": "uint256"
        }
      ],
      "name": "LogSplit",
      "type": "event"
    },
    {
      "anonymous": false,
      "inputs": [
        {
          "indexed": true,
          "name": "receiver1",
          "type": "address"
        },
        {
          "indexed": false,
          "name": "value",
          "type": "uint256"
        }
      ],
      "name": "LogWithDrawal",
      "type": "event"
    },
    {
      "constant": false,
      "inputs": [
        {
          "name": "receiver1",
          "type": "address"
        },
        {
          "name": "receiver2",
          "type": "address"
        }
      ],
      "name": "splitFunds",
      "outputs": [],
      "payable": true,
      "stateMutability": "payable",
      "type": "function"
    },
    {
      "constant": false,
      "inputs": [
        {
          "name": "fundToWithdraw",
          "type": "uint256"
        }
      ],
      "name": "withDrawFunds",
      "outputs": [],
      "payable": false,
      "stateMutability": "nonpayable",
      "type": "function"
    },
    {
      "constant": false,
      "inputs": [],
      "name": "pauseContract",
      "outputs": [],
      "payable": false,
      "stateMutability": "nonpayable",
      "type": "function"
    },
    {
      "constant": false,
      "inputs": [],
      "name": "resumeContract",
      "outputs": [],
      "payable": false,
      "stateMutability": "nonpayable",
      "type": "function"
    }
  ],
  "bytecode": "0x608060405234801561001057600080fd5b50336000806101000a81548173ffffffffffffffffffffffffffffffffffffffff021916908373ffffffffffffffffffffffffffffffffffffffff16021790555060008060146101000a81548160ff0219169083151502179055506000809054906101000a900473ffffffffffffffffffffffffffffffffffffffff1673ffffffffffffffffffffffffffffffffffffffff167f678a8d23717558b7f443236f862265c35cc7810fff817d88d2dea1ae170d06ee60405160405180910390a2610867806100de6000396000f300608060405260043610610078576000357c0100000000000000000000000000000000000000000000000000000000900463ffffffff1680630103c92b1461007d5780632accf2f7146100d4578063439766ce1461012a578063788d35d3146101415780638da5cb5b1461016e578063c4bc5da5146101c5575b600080fd5b34801561008957600080fd5b506100be600480360381019080803573ffffffffffffffffffffffffffffffffffffffff1690602001909291905050506101dc565b6040518082815260200191505060405180910390f35b610128600480360381019080803573ffffffffffffffffffffffffffffffffffffffff169060200190929190803573ffffffffffffffffffffffffffffffffffffffff1690602001909291905050506101f4565b005b34801561013657600080fd5b5061013f6104f2565b005b34801561014d57600080fd5b5061016c6004803603810190808035906020019092919050505061056a565b005b34801561017a57600080fd5b5061018361079f565b604051808273ffffffffffffffffffffffffffffffffffffffff1673ffffffffffffffffffffffffffffffffffffffff16815260200191505060405180910390f35b3480156101d157600080fd5b506101da6107c4565b005b60016020528060005260406000206000915090505481565b600080600060149054906101000a900460ff1615151561021357600080fd5b600073ffffffffffffffffffffffffffffffffffffffff168473ffffffffffffffffffffffffffffffffffffffff16141515156102b8576040517f08c379a000000000000000000000000000000000000000000000000000000000815260040180806020018281038252601e8152602001807f526563656976657220312041646472657373206973207265717569726564000081525060200191505060405180910390fd5b600073ffffffffffffffffffffffffffffffffffffffff168373ffffffffffffffffffffffffffffffffffffffff161415151561035d576040517f08c379a000000000000000000000000000000000000000000000000000000000815260040180806020018281038252601e8152602001807f526563656976657220322041646472657373206973207265717569726564000081525060200191505060405180910390fd5b60023481151561036957fe5b0491506000905081600160008673ffffffffffffffffffffffffffffffffffffffff1673ffffffffffffffffffffffffffffffffffffffff1681526020019081526020016000206000828254019250508190555081600160008573ffffffffffffffffffffffffffffffffffffffff1673ffffffffffffffffffffffffffffffffffffffff1681526020019081526020016000206000828254019250508190555081600202341415156104685760018060003373ffffffffffffffffffffffffffffffffffffffff1673ffffffffffffffffffffffffffffffffffffffff16815260200190815260200160002060008282540192505081905550600190505b3373ffffffffffffffffffffffffffffffffffffffff168373ffffffffffffffffffffffffffffffffffffffff168573ffffffffffffffffffffffffffffffffffffffff167fdf977ab3eb0f0f54e3e1537715c34722a263893bebe7df51f229a8829f9c15218585604051808381526020018281526020019250505060405180910390a450505050565b6000809054906101000a900473ffffffffffffffffffffffffffffffffffffffff1673ffffffffffffffffffffffffffffffffffffffff163373ffffffffffffffffffffffffffffffffffffffff1614151561054d57600080fd5b6001600060146101000a81548160ff021916908315150217905550565b60008060149054906101000a900460ff1615151561058757600080fd5b600160003373ffffffffffffffffffffffffffffffffffffffff1673ffffffffffffffffffffffffffffffffffffffff168152602001908152602001600020549050600081111515610641576040517f08c379a000000000000000000000000000000000000000000000000000000000815260040180806020018281038252600c8152602001807f5a65726f2042616c616e6365000000000000000000000000000000000000000081525060200191505060405180910390fd5b8082111515156106b9576040517f08c379a00000000000000000000000000000000000000000000000000000000081526004018080602001828103825260148152602001807f496e73756666696369656e742042616c616e636500000000000000000000000081525060200191505060405180910390fd5b81600160003373ffffffffffffffffffffffffffffffffffffffff1673ffffffffffffffffffffffffffffffffffffffff168152602001908152602001600020600082825403925050819055503373ffffffffffffffffffffffffffffffffffffffff167f5404294ae645d1b1803aa87efb3df67ea7117df6318a00d5ef92c567ff76573d836040518082815260200191505060405180910390a23373ffffffffffffffffffffffffffffffffffffffff166108fc839081150290604051600060405180830381858888f1935050505015801561079a573d6000803e3d6000fd5b505050565b6000809054906101000a900473ffffffffffffffffffffffffffffffffffffffff1681565b6000809054906101000a900473ffffffffffffffffffffffffffffffffffffffff1673ffffffffffffffffffffffffffffffffffffffff163373ffffffffffffffffffffffffffffffffffffffff1614151561081f57600080fd5b60008060146101000a81548160ff0219169083151502179055505600a165627a7a7230582058b776b3ab471009d63ab7e080629dccc19d674e0b5945e8652ca7ef7a14454d0029",
  "source": "pragma solidity ^0.4.21;\n\n//@title Splitter Contract  - Allows a single party to split ether among two recievers\n//@author Naveen Kumar M - <naveen.k.manickam@gmail.com>\ncontract Splitter {\n    address public owner;\n    bool isPaused;\n    mapping(address=>uint) public userBalance;\n    /* Event to log registered receivers */\n    event LogCreateContract(address indexed owner);\n    /* Event to log transactions */\n    event LogSplit(address indexed receiver1,address indexed reciever2,address indexed sender, uint256 receiverShare, uint256 senderShare); \n    /* Event to log withdrawals */\n    event LogWithDrawal(address indexed receiver1,uint256 value);\n    \n    \n    // @dev constructor - validates whether valid receiver addresses are passed and stores them in\n    // contract storage\n    function Splitter() public  {\n        owner = msg.sender;\n        isPaused = false;\n        emit LogCreateContract(owner);\n    }\t\n    \n    //modifier\n    modifier onlyOwner{\n        require(msg.sender == owner);\n        _;\n    }\n    \n    modifier isActive {\n        require(!isPaused);\n        _;\n    }\n\n    // Public functions\n    // @dev This function allows owner address to split funds equally\n    // among the receivers\n    function splitFunds(address receiver1, address receiver2) public payable isActive {\n        /* Validate receiver address */\n       require (receiver1 != address(0), \"Receiver 1 Address is required\");\n       require (receiver2 != address(0), \"Receiver 2 Address is required\");\n       uint singleShare = msg.value/2; \n       uint remainingShare = 0;\n       userBalance[receiver1] += singleShare;  \n       userBalance[receiver2] += singleShare;\n       if (msg.value  != (2*singleShare)){\n          userBalance[msg.sender]  += 1;\n\t      remainingShare = 1;\n       }\t\n       emit LogSplit(receiver1,receiver2,msg.sender,singleShare,remainingShare);\n    }\n\n    // @dev This function allows receivers / owners to withdraw their balance\n    // fund from the contract\n    // @param Fund to be withdrawn\n    function withDrawFunds(uint fundToWithdraw) public isActive{\n       uint balanceFund = userBalance[msg.sender];\n       require(balanceFund > 0, \"Zero Balance\");\n       require(fundToWithdraw <= balanceFund, \"Insufficient Balance\");       \n       userBalance[msg.sender] -= fundToWithdraw;\n       emit LogWithDrawal(msg.sender,fundToWithdraw);\n       msg.sender.transfer(fundToWithdraw);\n    }\n    \n    // @dev This function allows contract owner to pause the active contract \n    function pauseContract() public  onlyOwner {\n        isPaused = true;\n    }\n    \n    // @dev This function allows contract owner to re-activate the paused\n    //      contract\n    function resumeContract() public onlyOwner {\n        isPaused = false;\n    }\n}\n",
  "sourcePath": "/home/naveen/Documents/repos/Splitter/contracts/Splitter.sol",
  "compiler": {
    "name": "solc",
    "version": "0.4.24+commit.e67f0147.Emscripten.clang"
  },
  "schemaVersion": "2.0.1",
  "updatedAt": "2018-07-12T02:22:55.279Z"
}