{
  "contractName": "Splitter",
  "abi": [
    {
      "constant": true,
      "inputs": [
        {
          "name": "",
          "type": "address"
        }
      ],
      "name": "userBalance",
      "outputs": [
        {
          "name": "",
          "type": "uint256"
        }
      ],
      "payable": false,
      "stateMutability": "view",
      "type": "function"
    },
    {
      "constant": true,
      "inputs": [],
      "name": "owner",
      "outputs": [
        {
          "name": "",
          "type": "address"
        }
      ],
      "payable": false,
      "stateMutability": "view",
      "type": "function"
    },
    {
      "constant": true,
      "inputs": [],
      "name": "receiver2",
      "outputs": [
        {
          "name": "",
          "type": "address"
        }
      ],
      "payable": false,
      "stateMutability": "view",
      "type": "function"
    },
    {
      "constant": true,
      "inputs": [],
      "name": "receiver1",
      "outputs": [
        {
          "name": "",
          "type": "address"
        }
      ],
      "payable": false,
      "stateMutability": "view",
      "type": "function"
    },
    {
      "inputs": [
        {
          "name": "_rec1",
          "type": "address"
        },
        {
          "name": "_rec2",
          "type": "address"
        }
      ],
      "payable": false,
      "stateMutability": "nonpayable",
      "type": "constructor"
    },
    {
      "anonymous": false,
      "inputs": [
        {
          "indexed": true,
          "name": "",
          "type": "address"
        },
        {
          "indexed": true,
          "name": "",
          "type": "address"
        },
        {
          "indexed": true,
          "name": "",
          "type": "address"
        }
      ],
      "name": "LogRegisteredReceiver",
      "type": "event"
    },
    {
      "anonymous": false,
      "inputs": [
        {
          "indexed": true,
          "name": "receiver1",
          "type": "address"
        },
        {
          "indexed": true,
          "name": "reciever2",
          "type": "address"
        },
        {
          "indexed": true,
          "name": "owner",
          "type": "address"
        },
        {
          "indexed": false,
          "name": "receiverShare",
          "type": "uint256"
        },
        {
          "indexed": false,
          "name": "ownerShare",
          "type": "uint256"
        }
      ],
      "name": "LogSplit",
      "type": "event"
    },
    {
      "anonymous": false,
      "inputs": [
        {
          "indexed": true,
          "name": "receiver1",
          "type": "address"
        },
        {
          "indexed": false,
          "name": "value",
          "type": "uint256"
        }
      ],
      "name": "LogWithDrawal",
      "type": "event"
    },
    {
      "constant": false,
      "inputs": [],
      "name": "splitFunds",
      "outputs": [],
      "payable": true,
      "stateMutability": "payable",
      "type": "function"
    },
    {
      "constant": false,
      "inputs": [
        {
          "name": "fundToWithdraw",
          "type": "uint256"
        }
      ],
      "name": "withDrawFunds",
      "outputs": [],
      "payable": false,
      "stateMutability": "nonpayable",
      "type": "function"
    }
  ],
  "bytecode": "0x608060405234801561001057600080fd5b50604051604080610a5c8339810180604052810190808051906020019092919080519060200190929190505050600073ffffffffffffffffffffffffffffffffffffffff168273ffffffffffffffffffffffffffffffffffffffff16141580156100a75750600073ffffffffffffffffffffffffffffffffffffffff168173ffffffffffffffffffffffffffffffffffffffff1614155b151561011b576040517f08c379a000000000000000000000000000000000000000000000000000000000815260040180806020018281038252601f8152602001807f526563656976657220416464726573736573206172652072657175697265640081525060200191505060405180910390fd5b336000806101000a81548173ffffffffffffffffffffffffffffffffffffffff021916908373ffffffffffffffffffffffffffffffffffffffff16021790555081600160006101000a81548173ffffffffffffffffffffffffffffffffffffffff021916908373ffffffffffffffffffffffffffffffffffffffff16021790555080600260006101000a81548173ffffffffffffffffffffffffffffffffffffffff021916908373ffffffffffffffffffffffffffffffffffffffff1602179055506000809054906101000a900473ffffffffffffffffffffffffffffffffffffffff1673ffffffffffffffffffffffffffffffffffffffff16600260009054906101000a900473ffffffffffffffffffffffffffffffffffffffff1673ffffffffffffffffffffffffffffffffffffffff16600160009054906101000a900473ffffffffffffffffffffffffffffffffffffffff1673ffffffffffffffffffffffffffffffffffffffff167f8ced26cf90e689b99bc626d7ef85a0223d285627dba018d21fbc55bca7133b7160405160405180910390a45050610798806102c46000396000f300608060405260043610610078576000357c0100000000000000000000000000000000000000000000000000000000900463ffffffff1680630103c92b1461007d5780631b814f02146100d4578063788d35d3146100de5780638da5cb5b1461010b578063b601520414610162578063d6c7b4ad146101b9575b600080fd5b34801561008957600080fd5b506100be600480360381019080803573ffffffffffffffffffffffffffffffffffffffff169060200190929190505050610210565b6040518082815260200191505060405180910390f35b6100dc610228565b005b3480156100ea57600080fd5b50610109600480360381019080803590602001909291905050506104dc565b005b34801561011757600080fd5b506101206106fb565b604051808273ffffffffffffffffffffffffffffffffffffffff1673ffffffffffffffffffffffffffffffffffffffff16815260200191505060405180910390f35b34801561016e57600080fd5b50610177610720565b604051808273ffffffffffffffffffffffffffffffffffffffff1673ffffffffffffffffffffffffffffffffffffffff16815260200191505060405180910390f35b3480156101c557600080fd5b506101ce610746565b604051808273ffffffffffffffffffffffffffffffffffffffff1673ffffffffffffffffffffffffffffffffffffffff16815260200191505060405180910390f35b60036020528060005260406000206000915090505481565b60008060008060009054906101000a900473ffffffffffffffffffffffffffffffffffffffff1673ffffffffffffffffffffffffffffffffffffffff163373ffffffffffffffffffffffffffffffffffffffff1614151561028857600080fd5b34925060028381151561029757fe5b0491508160036000600160009054906101000a900473ffffffffffffffffffffffffffffffffffffffff1673ffffffffffffffffffffffffffffffffffffffff1673ffffffffffffffffffffffffffffffffffffffff168152602001908152602001600020600082825401925050819055508160036000600260009054906101000a900473ffffffffffffffffffffffffffffffffffffffff1673ffffffffffffffffffffffffffffffffffffffff1673ffffffffffffffffffffffffffffffffffffffff16815260200190815260200160002060008282540192505081905550816002028303905080600360008060009054906101000a900473ffffffffffffffffffffffffffffffffffffffff1673ffffffffffffffffffffffffffffffffffffffff1673ffffffffffffffffffffffffffffffffffffffff168152602001908152602001600020600082825401925050819055506000809054906101000a900473ffffffffffffffffffffffffffffffffffffffff1673ffffffffffffffffffffffffffffffffffffffff16600260009054906101000a900473ffffffffffffffffffffffffffffffffffffffff1673ffffffffffffffffffffffffffffffffffffffff16600160009054906101000a900473ffffffffffffffffffffffffffffffffffffffff1673ffffffffffffffffffffffffffffffffffffffff167fdf977ab3eb0f0f54e3e1537715c34722a263893bebe7df51f229a8829f9c15218585604051808381526020018281526020019250505060405180910390a4505050565b600080339150600360008373ffffffffffffffffffffffffffffffffffffffff1673ffffffffffffffffffffffffffffffffffffffff16815260200190815260200160002054905060008111151561059c576040517f08c379a000000000000000000000000000000000000000000000000000000000815260040180806020018281038252600c8152602001807f5a65726f2042616c616e6365000000000000000000000000000000000000000081525060200191505060405180910390fd5b808311151515610614576040517f08c379a00000000000000000000000000000000000000000000000000000000081526004018080602001828103825260148152602001807f496e73756666696369656e742042616c616e636500000000000000000000000081525060200191505060405180910390fd5b82600360008473ffffffffffffffffffffffffffffffffffffffff1673ffffffffffffffffffffffffffffffffffffffff168152602001908152602001600020600082825403925050819055508173ffffffffffffffffffffffffffffffffffffffff166108fc849081150290604051600060405180830381858888f193505050501580156106a7573d6000803e3d6000fd5b508173ffffffffffffffffffffffffffffffffffffffff167f5404294ae645d1b1803aa87efb3df67ea7117df6318a00d5ef92c567ff76573d846040518082815260200191505060405180910390a2505050565b6000809054906101000a900473ffffffffffffffffffffffffffffffffffffffff1681565b600260009054906101000a900473ffffffffffffffffffffffffffffffffffffffff1681565b600160009054906101000a900473ffffffffffffffffffffffffffffffffffffffff16815600a165627a7a723058204e8988d54dc25181aed5143fb7328e18593c6c6f550c50beb8771ec42bb252850029",
  "source": "pragma solidity ^0.4.21;\n\n//@title Splitter Contract  - Allows a single party to split ether among two recievers\n//@author Naveen Kumar - <naveen.k.manickam@gmail.com>\ncontract Splitter {\n    address public owner;\n    address public receiver1;\n    address public receiver2;\n    mapping(address=>uint) public userBalance;\n    /* Event to log registered receivers */\n    event LogRegisteredReceiver (address indexed, address indexed, address indexed);\n    /* Event to log transactions */\n    event LogSplit(address indexed receiver1,address indexed reciever2,address indexed owner, uint256 receiverShare, uint256 ownerShare); \n    /* Event to log withdrawals */\n    event LogWithDrawal(address indexed receiver1,uint256 value);\n    \n    // modifier\n    modifier onlyOwner {\n\trequire (msg.sender == owner);\n    \t_;\n    }\n\n    // @dev constructor - validates whether valid receiver addresses are passed and stores them in\n    // contract storage\n    constructor (address _rec1, address _rec2) public  {\n        /* Setup the reciever accounts and owner accounts */\n        require (_rec1 != address(0) && _rec2 != address(0), \"Receiver Addresses are required\");\n        owner = msg.sender;\n        receiver1 = _rec1;\n        receiver2 = _rec2;\n        emit LogRegisteredReceiver(receiver1,receiver2,owner);\n    }\t\n\n    // Public functions\n    // @dev This function allows owner address to split funds equally\n    // among the receivers\n    function splitFunds() public payable onlyOwner{\n       uint fundsSent = msg.value;\n       uint singleShare = fundsSent/2; \n       userBalance[receiver1] += singleShare;  \n       userBalance[receiver2] += singleShare;\n       uint remainingShare = fundsSent - (2*singleShare);\n       userBalance[owner]  += remainingShare;\n       emit LogSplit(receiver1,receiver2,owner,singleShare,remainingShare);\n    }\n\n    // @dev This function allows receivers / owners to withdraw their balance\n    // fund from the contract\n    // @param Fund to be withdrawn\n    function withDrawFunds(uint fundToWithdraw) public {\n       address initiator = msg.sender;\n       uint balanceFund = userBalance[initiator];\n       require(balanceFund > 0, \"Zero Balance\");\n       require(fundToWithdraw <= balanceFund, \"Insufficient Balance\");\n       userBalance[initiator] -= fundToWithdraw;\n       initiator.transfer(fundToWithdraw);\n       emit LogWithDrawal(initiator,fundToWithdraw);\n    }\n\n}\n",
  "sourcePath": "/home/naveen/Documents/repos/Splitter/contracts/Splitter.sol",
  "compiler": {
    "name": "solc",
    "version": "0.4.24+commit.e67f0147.Emscripten.clang"
  },
  "schemaVersion": "2.0.1",
  "updatedAt": "2018-07-02T23:54:59.246Z"
}