{
  "contractName": "Splitter",
  "abi": [
    {
      "inputs": [
        {
          "name": "count",
          "type": "uint256"
        }
      ],
      "payable": false,
      "stateMutability": "nonpayable",
      "type": "constructor"
    },
    {
      "anonymous": false,
      "inputs": [
        {
          "indexed": true,
          "name": "receiver",
          "type": "address"
        }
      ],
      "name": "recEvent",
      "type": "event"
    },
    {
      "anonymous": false,
      "inputs": [
        {
          "indexed": true,
          "name": "receiver",
          "type": "address"
        },
        {
          "indexed": false,
          "name": "value",
          "type": "uint256"
        }
      ],
      "name": "tranEvent",
      "type": "event"
    },
    {
      "constant": false,
      "inputs": [
        {
          "name": "rec",
          "type": "address"
        }
      ],
      "name": "addReciever",
      "outputs": [],
      "payable": false,
      "stateMutability": "nonpayable",
      "type": "function"
    },
    {
      "constant": false,
      "inputs": [],
      "name": "splitEther",
      "outputs": [],
      "payable": true,
      "stateMutability": "payable",
      "type": "function"
    }
  ],
  "bytecode": "0x608060405234801561001057600080fd5b506040516020806103cf8339810180604052810190808051906020019092919050505080600081905550506103858061004a6000396000f30060806040526004361061004c576000357c0100000000000000000000000000000000000000000000000000000000900463ffffffff168063502b31d214610051578063d44e74841461005b575b600080fd5b61005961009e565b005b34801561006757600080fd5b5061009c600480360381019080803573ffffffffffffffffffffffffffffffffffffffff169060200190929190505050610201565b005b60008060006002805490501115156100b557600080fd5b600280549050348115156100c557fe5b0491506000821115156100d757600080fd5b600090505b6002805490508110156101fd576002818154811015156100f857fe5b9060005260206000200160009054906101000a900473ffffffffffffffffffffffffffffffffffffffff1673ffffffffffffffffffffffffffffffffffffffff166108fc839081150290604051600060405180830381858888f19350505050158015610168573d6000803e3d6000fd5b5060028181548110151561017857fe5b9060005260206000200160009054906101000a900473ffffffffffffffffffffffffffffffffffffffff1673ffffffffffffffffffffffffffffffffffffffff167f1e16af91be82f071efd797ac0fdf684ebe563f8f32861f11a4f8f132b23248db836040518082815260200191505060405180910390a280806001019150506100dc565b5050565b60005460028054905010151561021657600080fd5b6000600160008373ffffffffffffffffffffffffffffffffffffffff1673ffffffffffffffffffffffffffffffffffffffff1681526020019081526020016000205414151561026457600080fd5b60028190806001815401808255809150509060018203906000526020600020016000909192909190916101000a81548173ffffffffffffffffffffffffffffffffffffffff021916908373ffffffffffffffffffffffffffffffffffffffff16021790555050600280549050600160008373ffffffffffffffffffffffffffffffffffffffff1673ffffffffffffffffffffffffffffffffffffffff168152602001908152602001600020819055508073ffffffffffffffffffffffffffffffffffffffff167fcc455780b51042fe9a1d4cddf5f8300d45c82092112546b248a104ef59c6781260405160405180910390a2505600a165627a7a72305820f7e4555a5a41385b0e2e2cc0be06a38da1151c501a247c943475a05b3de23e6f0029",
  "source": "pragma solidity ^0.4.21;\n\ncontract Splitter {\n    uint private recCount;\n    mapping(address => uint) addrIndex;\n    address[] receivers;\n    event recEvent(address indexed receiver);\n    event tranEvent(address indexed receiver, uint256 value); \n    /* constructor */\n    function Splitter (uint count) public {\n        /* Setting up a limit on the receivers count at the time of contract deployment */\n        recCount = count;\n    }\n    function addReciever(address rec) public{\n        /* Validating the count of recievers before adding a new entry */\n        require(receivers.length < recCount);\n        /* Validating for duplicate address entry */\n        require(addrIndex[rec] == 0);\n        receivers.push(rec);\n        addrIndex[rec] = receivers.length;\n        /* Logging addition of new reciever */\n        emit recEvent(rec);\n    }\n    \n    function splitEther() public payable{\n        /* Validating whether there is atleast one reciever */\n        require(receivers.length>0);\n        /* Sharing the ether equally among the recievers */\n        uint256 singleShare = msg.value/(receivers.length);\n        /* Making sure that share is valid */\n        require (singleShare > 0);\n        for (uint i=0; i< receivers.length; i++){\n            receivers[i].transfer(singleShare);\n            /* Logging split transfer for each of the recievers */\n             emit tranEvent(receivers[i],singleShare);\n        }\n    }\n}\n\n\n",
  "sourcePath": "/home/naveen/Documents/nav-truffle/Splitter/contracts/Splitter.sol",
  "compiler": {
    "name": "solc",
    "version": "0.4.24+commit.e67f0147.Emscripten.clang"
  },
  "schemaVersion": "2.0.1",
  "updatedAt": "2018-06-23T13:13:58.242Z"
}