{
  "contractName": "Splitter",
  "abi": [
    {
      "constant": true,
      "inputs": [],
      "name": "receiver2",
      "outputs": [
        {
          "name": "",
          "type": "address"
        }
      ],
      "payable": false,
      "stateMutability": "view",
      "type": "function"
    },
    {
      "constant": true,
      "inputs": [],
      "name": "receiver1",
      "outputs": [
        {
          "name": "",
          "type": "address"
        }
      ],
      "payable": false,
      "stateMutability": "view",
      "type": "function"
    },
    {
      "inputs": [
        {
          "name": "_rec1",
          "type": "address"
        },
        {
          "name": "_rec2",
          "type": "address"
        }
      ],
      "payable": false,
      "stateMutability": "nonpayable",
      "type": "constructor"
    },
    {
      "anonymous": false,
      "inputs": [
        {
          "indexed": true,
          "name": "",
          "type": "address"
        }
      ],
      "name": "regRec",
      "type": "event"
    },
    {
      "anonymous": false,
      "inputs": [
        {
          "indexed": true,
          "name": "receiver",
          "type": "address"
        },
        {
          "indexed": false,
          "name": "value",
          "type": "uint256"
        }
      ],
      "name": "tranEvent",
      "type": "event"
    },
    {
      "constant": false,
      "inputs": [],
      "name": "splitFunds",
      "outputs": [
        {
          "name": "",
          "type": "bool"
        }
      ],
      "payable": true,
      "stateMutability": "payable",
      "type": "function"
    }
  ],
  "bytecode": "0x608060405234801561001057600080fd5b506040516040806105d78339810180604052810190808051906020019092919080519060200190929190505050816000806101000a81548173ffffffffffffffffffffffffffffffffffffffff021916908373ffffffffffffffffffffffffffffffffffffffff1602179055506000809054906101000a900473ffffffffffffffffffffffffffffffffffffffff1673ffffffffffffffffffffffffffffffffffffffff167f42689fdb5e008dfb8e7299ee3e48c5dcb3d35ad3ccc0e44d07c803a0060ab48860405160405180910390a280600160006101000a81548173ffffffffffffffffffffffffffffffffffffffff021916908373ffffffffffffffffffffffffffffffffffffffff160217905550600160009054906101000a900473ffffffffffffffffffffffffffffffffffffffff1673ffffffffffffffffffffffffffffffffffffffff167f42689fdb5e008dfb8e7299ee3e48c5dcb3d35ad3ccc0e44d07c803a0060ab48860405160405180910390a2505061043f806101986000396000f300608060405260043610610057576000357c0100000000000000000000000000000000000000000000000000000000900463ffffffff1680631b814f021461005c578063b60152041461007e578063d6c7b4ad146100d5575b600080fd5b61006461012c565b604051808215151515815260200191505060405180910390f35b34801561008a57600080fd5b506100936103c8565b604051808273ffffffffffffffffffffffffffffffffffffffff1673ffffffffffffffffffffffffffffffffffffffff16815260200191505060405180910390f35b3480156100e157600080fd5b506100ea6103ee565b604051808273ffffffffffffffffffffffffffffffffffffffff1673ffffffffffffffffffffffffffffffffffffffff16815260200191505060405180910390f35b60008073ffffffffffffffffffffffffffffffffffffffff166000809054906101000a900473ffffffffffffffffffffffffffffffffffffffff1673ffffffffffffffffffffffffffffffffffffffff16141580156101da5750600073ffffffffffffffffffffffffffffffffffffffff16600160009054906101000a900473ffffffffffffffffffffffffffffffffffffffff1673ffffffffffffffffffffffffffffffffffffffff1614155b15156101e557600080fd5b6000809054906101000a900473ffffffffffffffffffffffffffffffffffffffff1673ffffffffffffffffffffffffffffffffffffffff166108fc60023481151561022c57fe5b049081150290604051600060405180830381858888f19350505050158015610258573d6000803e3d6000fd5b506000809054906101000a900473ffffffffffffffffffffffffffffffffffffffff1673ffffffffffffffffffffffffffffffffffffffff167f1e16af91be82f071efd797ac0fdf684ebe563f8f32861f11a4f8f132b23248db6002348115156102be57fe5b046040518082815260200191505060405180910390a2600160009054906101000a900473ffffffffffffffffffffffffffffffffffffffff1673ffffffffffffffffffffffffffffffffffffffff166108fc60023481151561031c57fe5b049081150290604051600060405180830381858888f19350505050158015610348573d6000803e3d6000fd5b50600160009054906101000a900473ffffffffffffffffffffffffffffffffffffffff1673ffffffffffffffffffffffffffffffffffffffff167f1e16af91be82f071efd797ac0fdf684ebe563f8f32861f11a4f8f132b23248db6002348115156103af57fe5b046040518082815260200191505060405180910390a290565b600160009054906101000a900473ffffffffffffffffffffffffffffffffffffffff1681565b6000809054906101000a900473ffffffffffffffffffffffffffffffffffffffff16815600a165627a7a72305820d94e213be44ba77fafa116b26cb860df7e2239579d3207a81330b27f3db3acd50029",
  "source": "pragma solidity ^0.4.21;\n\ncontract Splitter {\n    /* Receiver1 address */\n    address public receiver1;\n    /* Receiver2 address */\n    address public receiver2;\n    event regRec(address indexed);\n    event tranEvent(address indexed receiver, uint256 value); \n    /* constructor */\n    constructor (address _rec1, address _rec2) public {\n        /* Setup the reciever accounts */\n        receiver1 = _rec1;\n        emit regRec(receiver1);\n        receiver2 = _rec2;\n        emit regRec(receiver2);\n    }\n    \n    function splitFunds() public payable returns(bool){\n        /* Making sure thatwe have required addresses*/\n        require (receiver1 != address(0) && receiver2 != address(0));\n        /* Transferring funds to the first receiver */ \n        receiver1.transfer(msg.value/2);\n        /* Logging split transfer for each of the recievers */\n        emit tranEvent(receiver1,msg.value/2);\n        /* Transferring funds to the second receiver */  \n        receiver2.transfer(msg.value/2);\n        /* Logging split transfer for each of the recievers */\n        emit tranEvent(receiver2,msg.value/2);\n        }\n    }\n\n\n",
  "sourcePath": "/home/naveen/Documents/repos/Splitter/contracts/Splitter.sol",
  "compiler": {
    "name": "solc",
    "version": "0.4.24+commit.e67f0147.Emscripten.clang"
  },
  "schemaVersion": "2.0.1",
  "updatedAt": "2018-06-26T01:53:56.345Z"
}